S01C00004C434477697468206C696E65666F6C6C6F7765722E7372656347
S11300000C942A000C943F000C943F000C943F0085
S11300100C943F000C943F000C943F000C943F0060
S11300200C943F000C943F000C943F000C943F0050
S11300300C943F000C943F000C943F000C943F0040
S11300400C943F000C943F000C943F000C943F0030
S11300500C943F0011241FBECFE5D4E0DEBFCDBF1A
S113006010E0A0E6B0E0ECE7F2E002C005900D92EB
S1130070A638B107D9F70E949E000C943C010C9459
S113008000009C01207F33272C5F28BBE9EFF0E0C0
S11300903197F1F700C0000098B3945098BB829553
S11300A0807F8C5F88BB89EF90E00197F1F700C0F7
S11300B0000088B3845088BB089582E090E00E94D9
S11300C0410088E290E00E9441008CE090E00E94B0
S11300D0410086E090E00E94410008959C01207F49
S11300E033272B5F28BBE9EFF0E03197F1F700C02D
S11300F0000028B3245028BB82959295907F9827BE
S1130100807F98278B5F88BB89EF90E00197F1F798
S113011000C0000088B3845088BB0895CF93DF9358
S1130120EC018881882339F0219690E00E946E00CA
S113013089918111FACFDF91CF91089514BA15BA3C
S11301408FEF81BB87BB0E945D0080E890E00E9436
S1130150410080E690E00E948E00C0E110E5D0E40A
S113016083B3813001F5C2BB83EC99E00197F1F7C9
S113017000C0000081E090E00E94410083EC99E01F
S11301800197F1F700C0000080E890E00E94410070
S11301908EE690E00E948E008BE49DE10197F1F7DA
S11301A000C00000DDCF83B3823001F5D2BB83EC05
S11301B099E00197F1F700C0000081E090E00E940F
S11301C0410083EC99E00197F1F700C0000080E85A
S11301D090E00E94410083E790E00E948E008BE44F
S11301E09DE10197F1F700C00000BACF83B38038D6
S11301F001F512BB83EC99E00197F1F700C0000010
S113020081E090E00E94410083EC99E00197F1F7CE
S113021000C0000080E890E00E94410089E790E07F
S11302200E948E008BE49DE10197F1F700C000006D
S113023097CF83B3811194CF12BA83EC99E00197DD
S1130240F1F700C0000081E090E00E94410083ECDF
S113025099E00197F1F700C0000080E890E00E9467
S1130260410081E890E00E948E008BE49DE10197BB
S10F0270F1F700C0000074CFF894FFCF39
S113027C6C696E6520666F6C6C6F776572006C656B
S113028C667400726967687400666F727761726471
S109029C0073746F700092
S9030000FC
